:0A00360000010202030304040505A3
:100CE100E4F560F55FF55EF55DC203C200D202C2B4
:100CF100011212B87E017F008E0A8F0B75120175E9
:100D010013147508017509207510017511487514C2
:100D110001751570EE54E07002C1267561007562AF
:100D2100808E638F64C374909FFF74019ECF2402F1
:100D3100CF3400FEE48F5C8E5BF55AF559F558F51A
:100D410057F556F555AF5CAE5BAD5AAC59AB58AAE9
:100D510057A956A855C31208F65026E5622558F53D
:100D610082E5613557F58374CDF0E5582401F558D6
:100D7100E43557F557E43556F556E43555F55580C4
:100D8100C4E4F558F557F556F555AF5CAE5BAD5A71
:100D9100AC59AB58AA57A956A855C31208F65033F7
:100DA100E5642558F582E5633557F583E0FFE56293
:100DB1002558F582E5613557F583EFF0E5582401B3
:100DC100F558E43557F557E43556F556E43555F5FC
:100DD1005580B785610A85620B74002480FF740118
:100DE10034FFFEC3E5139FF513E5129EF512C3E52B
:100DF1000D9FF50DE50C9EF50CC3E50F9FF50FE575
:100E01000E9EF50EC3E5099FF509E5089EF508C399
:100E1100E5119FF511E5109EF510C3E5159FF51538
:100E2100E5149EF514D2E843D82090E668E0440B1F
:100E3100F090E65CE0443DF0D2AFD208121AF49093
:100E4100E680E054F7F0538EF8C203300105120931
:100E51002DC2013003291200405024C203121C3C50
:100E610020001690E682E030E704E020E1EF90E612
:100E710082E030E604E020E0E4121B231200461277
:040E810010FB80C71B
:10092D0090E6B9E0B40C004002612890093E25E044
:10093D007321D0414A612841C9612861282156613E
:10094D002821CB21C621BC21C112004840026134AF
:10095D0090E6BBE024FE602214603324FD60111488
:10096D00602224067047E50A90E6B3F0E50B803768
:10097D00E51290E6B3F0E513802DE50C90E6B3F0AB
:10098D00E50D8023E50E90E6B3F0E50F801990E6B6
:10099D00BAE0FF121B4FAA06A9077B01EA494B607B
:1009AD000CEE90E6B3F0EF90E6B4F06134612D12E9
:1009BD001D216134121C816134121D3C6134121DE4
:1009CD000F613412004E4002613490E6B8E0247F8E
:1009DD00601514601924027062A200E43325E0FF53
:1009ED00A202E4334F8041E490E740F0803F90E66F
:1009FD00BCE0547EFF7E00E0D394807C0040047DFB
:100A0D000180027D00EC4EFEED4F2436F582740020
:100A1D003EF583E493FF3395E0FEEF24A1FFEE3422
:100A2D00E68F82F583E0540190E740F0E4A3F09067
:100A3D00E68AF090E68B7402F06134612D1200505D
:100A4D004002613490E6B8E024FE60132402600297
:100A5D00613490E6BAE0B40104C2006134612D90B6
:100A6D00E6BAE0705590E6BCE0547EFF7E00E0D320
:100A7D0094807C0040047D0180027D00EC4EFEEDF3
:100A8D004F2436F58274003EF583E493FF3395E0F1
:100A9D00FEEF24A1FFEE34E68F82F583E054FEF0E5
:100AAD0090E6BCE05480131313541FFFE0540F2F36
:100ABD0090E683F0E04420F0806D80641217FD50C5
:100ACD006690E6B8E024FE60192402705A90E6BAEA
:100ADD00E0B40104D200804F90E6BAE064026047B2
:100AED00803E90E6BCE0547EFF7E00E0D394807C97
:100AFD000040047D0180027D00EC4EFEED4F24365A
:100B0D00F58274003EF583E493FF3395E0FEEF2408
:100B1D00A1FFEE34E68F82F5838008120192500713
:0F0B2D0090E6A0E04401F090E6A0E04480F022C2
:03003300020006C2
:0400060053D8EF32AA
:1001000012010002000000406E130000090001020D
:020110000001EC
:0A0114000A0600020000004001008E
:100120000902270001010060000904000003FF002C
:1001300000000705820200020007050102400000DE
:0701400007058103400001E7
:100148000902270001010060000904000003FF0004
:100158000000070582024000000705010240000078
:0701680007058103400001BF
:10017000040309040C0341004E0044004F005200E8
:1001800010035500530042002000430041004D0081
:0201900000006D
:03000B000219A532
:1019A500C0E0C0D075D000C005C006C007C28CAF6E
:1019B5008CEFFEAD8AED24D1FDE43463CD2400FF28
:1019C500ED3E8F8AF58CD28C051DE51D7002051C38
:0B19D500D007D006D005D0D0D0E03203
:1000E200C2AFE4F51CF51DC28C5389F0438901753A
:0E00F2008AD1758C63C2B9D2A9D28CD2AF224A
:091D3300C2AFAF1DAE1CD2AF22FD
:0A0FF500C2AFE4F51CF51DD2AF22D7
:101C61001128416E646F724C6F636B657233363845
:0F1C7100343100023BFFFF023900000247000040
:1012B80090E600E054E7441054FDF000000090E68A
:1012C8007AE054FEF0000000121D4400000090E691
:1012D8000B7403F000000090E6017413F0000000A6
:1012E80090E61074A0F090E61174B0F090E61274D5
:1012F800E0F0E490E613F090E615F090E614F000C4
:10130800000090E602F000000090E609F0000000FE
:1013180000000090E6047480F00000007402F00001
:101328000000E4F000000000000090E618740DF0E2
:1013380000000090E6207402F0000000E490E6212E
:10134800F0000000D281D283D287755301F53D7F2A
:0F1358000312189590010AEFF0000000020B3C01
:100B3C00C204E4F5221217DC8F50C20790010AE0C0
:100B4C0064076004E0B408151210007FEC7EFF12FD
:100B5C001800E4F545754A4075B201806E90010AA3
:100B6C00E064056005E0640C7035754510754A202D
:100B7C00D208121C9E7F05121895EF30E009C28135
:100B8C0075B20BD2078007D28175B201C2079001F2
:100B9C000AE0640C600281C3F53B753C0781C3908D
:100BAC00010AE0640E702B7F05121895EF30E106F8
:100BBC00753B00753C07754510754A20C28175B2AE
:100BCC000A75B602C208121CBBD207D208121C9EB0
:100BDC0081C390010AE0640D70117F05121895EF26
:100BEC0030E110753B00753C07800890010AE06409
:100BFC000F7014754510754A20C28175B20BD2075F
:100C0C00D208121C9E803290010AE06401704E7F63
:100C1C0005121895EF30E106753B00753C0375B273
:100C2C0001D208121C9EE4FF121895BFC20575452F
:100C3C00108003E4F545754A1000000090E6187426
:100C4C000CF0000000E490E619F000000090E61AA9
:100C5C00F000000090E61BF0000000805A90010AA2
:100C6C00E06409703775B201D208121C9E753B0006
:100C7C00753C07E4FF121895BFC20575451080033B
:100C8C00E4F5457F05121895EF30E00BC28175B283
:100C9C000BC281D283D207754A10801B90010AE0E7
:100CAC00B40B0B75B280E4F545754A20800975B21A
:100CBC0001E4F545754A011200E2D205E4F53DF573
:100CCC002390010AE064076004E0B408077FEC7E1F
:050CDC00FF12180022C8
:1010FB0020050221CA90E6A2E020E162121D33D343
:10110B00EF9463EE94004003120FF5E544600E90EC
:10111B00E7C07404F090E68F7401F01544E553B406
:10112B00011BE5AA20E016E5AA20E0047F0180025E
:10113B007F0090E7C0EFF090E68F7401F0E53D3053
:10114B00E01CE5AA20E0047F0180027F0090E7C04D
:10115B00EFF090E68F7401F0D52303E4F53D121BFD
:10116B00A3EF4E6030E4F539F53AC3E548940AE550
:10117B004764809480400890E680E054F7F022C3E7
:10118B00E548940BE5476480948050330548E54867
:10119B00702D054722E4F547F548E53A640A4539D1
:1011AB00700890E680E04408F022C3E53A940BE522
:1011BB0039648094805008053AE53A70020539226B
:02004000D322C9
:02004600D322C3
:02004800D322C1
:081D3C0090E6BAE0F554D32251
:101D0F0090E740E554F0E490E68AF090E68B04F01B
:021D1F00D322CD
:101C810090E6BAE0F54090E6837411F07431F07497
:0D1C910001F07421F07412F07432F0D322CF
:101D210090E740E540F0E490E68AF090E68B04F01D
:021D3100D322BB
:02004E00D322BB
:02005000D322B9
:0217FD00D322F5
:1014F90090E6B8E06440707690E6BFE0FE90E6BE04
:10150900E0FDEDFFD39400EE94004062E490E68A9A
:10151900F090E68BF090E6A0E020E1F990E68BE010
:101529006F7001EE7048EF64104E7042FFFE744018
:101539002FF582E434E7F583E0FD74282FF8E66D92
:101549006002C3220FBF00010EEF64104E70DF90DE
:10155900E6B9E0B4C11190010AE06407600EE064E5
:10156900086009C2088002D208121C9ED322C32235
:1001920090E6B9E0120907021AB002B8B10262B2DF
:1001A2000262B3036AB40393B703D6B80412B90464
:1001B20022BB0432BC01E2BD01FCBE05BFBF051E6D
:1001C200C1051EC204D9C304FAC40523C5059BC6D2
:1001D2000558CC02E8D00333D104BEEE000005DAA4
:1001E20090E6BFE0756700F568756800F56790E610
:1001F200BEE04268E41216D4A1DA90E6BFE0756769
:1002020000F568756800F56790E6BEE04268E4AF05
:1002120068AE67121730A1DA90E6BBE0756500F5AB
:1002220066756600F56590E6BAE0426690E6BCE067
:10023200F54390E6BFE0756700F568756800F567FD
:1002420090E6BEE04268E490E6B8E0AD68AC67AF25
:1002520066AE65B4C0051213F1A1DA121789A1DAEC
:1002620090E6B9E090E6BBB4B205E045458001E016
:10027200756500F566E566756600F56590E6BAE0B7
:10028200426690E6BCE0F54390E6BFE0756700F594
:1002920068756800F56790E6BEE04268E490E6B8EB
:1002A200E0AD68AC67AF66AE65B4C005121475A167
:1002B200DA121667A1DA90E6BCE0F54390E6BFE0F9
:1002C200756700F568756800F56790E6BEE04268FC
:1002D200E490E6B8E0AF68AE67B4C0051215F7A1C6
:1002E200DA121921A1DA90E6BBE0756500F56675B0
:1002F2006600F56590E6BAE0426690E6BCE0F5433A
:1003020090E6BFE0756700F568756800F56790E6EE
:10031200BEE04268D281C28390E6B8E0AD68AC67C5
:10032200AF66AE65B4C0051213F18036121789802C
:100332003190E6BCE0F54390E6BFE0756700F568F2
:10034200756800F56790E6BEE04268D281C283908C
:10035200E6B8E0AF68AE67B4C0051215F7800312C5
:100362001921D283C281A1DA00000000000090E6C8
:10037200047480F00000000000007402F00000002D
:10038200000000E4F000000000000090E7C0F0A1CF
:10039200DA90E6B8E064C06002A1DA90E6A0E0205C
:1003A200E1F990010AE090E740F090010CE49390AB
:1003B200E741F090E60AE090E742F0A3E54AF0A2B6
:1003C20007E433A3F0E4A3F090E68AF090E68B749E
:1003D20006F0A1DA90E6B8E064C06002A1DA90E625
:1003E200A0E020E1F990E740E541F090E620E090BE
:1003F200E741F090E621E090E742F090E600E090DD
:10040200E743F0E490E68AF090E68B7404F0A1DA18
:1004120090E65EE04410F090E65CE04402F0A1DA7F
:1004220090E65EE054EFF090E65CE054FDF0A1DA75
:1004320090E6B8E064C0702A90E6A0E020E1F9E519
:100442004C90E740F0E54BA3F0E54EA3F0E54DA359
:10045200F0A3E546F0E490E68AF090E68B7405F0AE
:10046200A1DA90E6B8E064406002A1DA90E68AF090
:1004720090E68BF0E550C394085002A1DA90E6A012
:10048200E020E1F990E741E0FE90E740E07C0024C3
:1004920000F54CEC3EF54B90E743E0FE90E742E07E
:1004A2002400F54EEC3EF54D90E744E0F546E54C70
:1004B200454B7004C204A1DAD204A1DA90E680E0CE
:1004C200540DF0E04408F07FDC7E0512196490E6DA
:1004D20080E054F5F0A1DA90E6B8E064406002A151
:1004E200DA90E68AF090E68BF090E6A0E020E1F95F
:1004F20090E740E0F553A1DA90E6B8E0644060028C
:10050200A1DA90E68AF090E68BF090E6A0E020E196
:10051200F990E740E0F53D752302A1DA1214F9A142
:10052200DA90E6B8E0B4C00B90E6A0E020E1F9A2D0
:1005320087803390E6B8E064406002A1DA90E68AF0
:10054200F090E68BF090E6A0E020E1F990E740E041
:1005520024FF9287A1DA90E6B8E0B4C01B90E6A02F
:10056200E020E1F9A205E43390E740F0E490E68A66
:10057200F090E68B04F0806090E6B8E0644070583A
:1005820090E68AF090E68BF090E6A0E020E1F99008
:10059200E740E024FF9205803F90E6BAE0245F60E6
:1005A200111460122402703090E6B8E0FF12184C69
:1005B2008026D2088002C208121CBB801BE490E68F
:1005C2008AF090E68BF090E6A0E020E1F990E74017
:0A05D200E090010AF0120B3CC32276
:101BCB00C0E0C083C082C085C084C086758600D249
:101BDB00015391EF90E65D7401F0D086D084D085EF
:071BEB00D082D083D0E0326C
:10000E00C0E0C083C082C085C084C08675860053A0
:10001E0091EF90E65D7404F0D086D084D085D082C6
:05002E00D083D0E03298
:101BF200C0E0C083C082C085C084C08675860053A1
:101C020091EF90E65D7402F0D086D084D085D082C8
:051C1200D083D0E03298
:1018DC00C0E0C083C082C085C084C0867586008588
:1018EC00100C85110D850D82850C83A37402F08577
:1018FC00080E85090F850F82850E83A37407F0539C
:10190C0091EF90E65D7410F0D086D084D085D082B3
:05191C00D083D0E03291
:101C1700C0E0C083C082C085C084C086758600537B
:101C270091EF90E65D7408F0D086D084D085D0829D
:051C3700D083D0E03273
:100F9500C0E0C083C082C085C084C08675860090CD
:100FA500E680E030E73485080C85090D850D8285DE
:100FB5000C83A37402F085100E85110F850F8285B1
:100FC5000E83A37407F000000090E6207402F00081
:100FD500000090E621E4F00000005391EF90E65DFB
:100FE5007420F0D086D084D085D082D083D0E032F2
:01000A0032C3
:01004200328B
:01004A003283
:01005200327B
:010FFF0032BF
:0111FF0032BD
:0117FF0032B7
:011D5300325D
:011D5400325C
:011D5500325B
:011D5600325A
:011D57003259
:011D58003258
:011D59003257
:011D5A003256
:011D5B003255
:011D5C003254
:011D5D003253
:011D5E003252
:011D5F003251
:011D60003250
:011D6100324F
:011D6200324E
:011D6300324D
:011D6400324C
:011D6500324B
:011D6600324A
:011D67003249
:011D68003248
:011D69003247
:011D6A003246
:011D6B003245
:011D6C003244
:011D6D003243
:011D6E003242
:011D6F003241
:101895008F69E490E000F0A3E569F07AE07B007DD4
:1018A500027F51121CF37AE07B027D017F51121CED
:1018B500D7E569B4031B90E002E0FFC3940140063D
:1018C500EFD3940F400B900108746EF0E490E002A2
:0718D500F090E002E0FF22A9
:1017DC00E490E000F07AE07B007D017F70121CF356
:1017EC007AE07B017D017F70121CD790E001E0FF55
:0117FC0022CA
:1013F1008E698F6A8C6B8D6CE56C456B607590E6C0
:10140100A0E020E1F9C3E56C9440E56B940050083D
:10141100856B6D856C6E8006756D00756E40E4FFA1
:10142100FEC3EF956EEE956D501474402FF582E476
:1014310034E7F58374CDF00FBF00010E80E3AD6E8C
:101441007AE779407F40AB07AF6AAE69121A52E47E
:1014510090E68AF090E68BE56EF0256AF56AE56D17
:101461003569F569C3E56C956EF56CE56B956DF5C0
:041471006B808522E5
:101789008E698F6A8C6B8D6CE56C456B6044E49057
:10179900E68AF090E68BF090E6A0E020E1F990E689
:1017A9008BE0756D00F56EFD7AE779407F40AB07F8
:1017B900AF6AAE69121A19E56E256AF56AE56D35E3
:1017C90069F569C3E56C956EF56CE56B956DF56B1F
:0317D90080B622B5
:101475008E6D8F6E8C6F8D70E570456F607590E623
:10148500A0E020E1F9C3E5709440E56F94005008B1
:10149500856F718570728006757100757240E4FF05
:1014A500FEC3EF9572EE9571501474402FF582E4EA
:1014B50034E7F58374CDF00FBF00010E80E3AD7204
:1014C5007AE779407F40AB07AF6EAE6D121B7AE4C9
:1014D50090E68AF090E68BE572F0256EF56EE57183
:1014E500356DF56DC3E5709572F570E56F9571F520
:0414F5006F8085225D
:101667008E698F6A8C6B8D6C90E6BCE0F54390E6D3
:10167700BFE0756B00F56C756C00F56B90E6BEE02E
:10168700426CE56C456B6044E490E68AF090E68B2B
:10169700F090E6A0E020E1F990E68BE0756D00F5AB
:1016A7006EFD7AE779407F40AB07AF6AAE691213E8
:1016B70067E56E256AF56AE56D3569F569C3E56C19
:0D16C700956EF56CE56B956DF56B80B622A8
:1015F7008E698F6AE56A4569606590E6A0E020E13B
:10160700F9C3E56A9440E5699400500885696B85DC
:101617006A6C8006756B00756C40E4FFFEC3EF953E
:101627006CEE956B501474402FF582E434E7F58324
:1016370074CDF00FBF00010E80E3AD6C7AE77B40FD
:10164700AF43121CD7E490E68AF090E68BE56CF086
:10165700C3E56A956CF56AE569956BF5698095222E
:101921008E698F6AE56A45696032E490E68AF090D3
:10193100E68BF090E6A0E020E1F990E68BE0756B94
:1019410000F56CFD7AE77B40AF43121CF3C3E56AF7
:10195100956CF56AE569956BF56980C890E678E064
:03196100F541222B
:10100000D20890E000741FF0A3E4F0A3744DF0A3A5
:10101000747DF0E4A3F0A304F0A304F0A304F0A310
:1010200004F0A304F0A304F0A304F0E4A3F0A37479
:1010300080F0E4A3F0A3F0A3F0A37408F0A314F0ED
:10104000A3745BF07AE07B127D027F52121CF37A6C
:10105000E07B147D027F52121CD790E014E0FF1257
:1010600019E090E0127401F0A37438F07AE07B127A
:101070007D027F2A121CF390E004E0FF90E00DE077
:10108000FE90E00CE04EFD7C001215828208920872
:1010900090E005E0FF90E001E0FCA3E0FD12158286
:1010A0008208920890E006E090E00312157D820825
:1010B000920890E007E0FF90E010E0FCA3E0FD90D4
:1010C000E00EE04CFCA3E04DFD1215828208920870
:1010D00090E0081215798208920890E009121579BB
:1010E0008208920890E00A1215798208920890E02E
:0B10F0000B12157982089208A208225A
:09157900E090E000FFE0FD7C00C1
:10158200EFD394075008ED94FFEC94074002C32276
:10159200EF25E0FBE433FAEDAE047805C333CE3336
:1015A200CED8F9FFEE4AFEEF4BFDAC06E4FBFAF9AA
:1015B200EB25E0FBEA33FAEDAE04A801088005CE84
:1015C200C313CE13D8F95401FFEF420309B910E057
:1015D200AF02AE0390E01574C8F0A3EFF0A3EEF0F3
:1015E2007AE07B157D037F70121CF300000090E609
:0515F20078E0A2E122F7
:1019E0008F42E54230E00E754FD375277B75261484
:1019F000752504800C754FD37527527526B875254B
:101A00001E75244290E01574C9F0A3E542F07AE017
:091A10007B157D027F70021CF3BE
:101367008E6F8F708D718A728B73E571607BAF4A58
:10137700E570FDE54A145DFEC3EF9EFFE571C39F6F
:10138700500585717680028F76E56F90E000F0A3B7
:10139700EDF07574E0757502AF76EF60250573E5BE
:1013A70073AC727002057214F5828C83E0FE0575CA
:1013B700E575AC747002057414F5828C83EEF01F2A
:1013C70080D8E5762402FD7AE07B00AF43121CF358
:1013D700AF43121A8AE5762570F570E4356FF56F1D
:0A13E700C3E5719576F5718081224F
:101B7A008E738F748D758A768B77E57390E000F09B
:101B8A00EFA3F07AE07B007D02AF43121CF3AB7740
:091B9A00AA76AD75AF43021CD719
:101A19008A6F8B70EF90E000F08D71E57160290598
:101A290070E570AE6F7002056F14F5828E83E090D9
:101A3900E001F07AE07B007D02AF43121CF390E0F5
:091A490000E004F0157180D322C5
:101A52008A6F8B70EF90E000F08D71E57160287AEB
:101A6200E07B007D01AF43121CF30570E570AA6FA5
:101A72007002056F14FB7D01AF43121CD790E0008A
:081A8200E004F0157180D4228C
:1018000090E0007440F0AD07AC06EC1207DF7B53AC
:101810007A05795B78C01206D47B5C7A8F79197867
:10182000431205E312081890E001EFF07AE07B0024
:101830007D027F4C121CF390E00074B0F0A37401A1
:0C184000F07AE07B007D027F70021CF358
:1016D40090E6A0E020E1F9756900756A03E4FF7EF5
:1016E4000390E74074CDF0A3DEFC75434C7AE779B0
:1016F400407F40AB077D017F407E00121A527AE79B
:1017040079407F40AB077D017F407E00121A527AF8
:10171400E779417EE77F41AB077D027F4D121CD7FD
:0C172400E490E68AF090E68BE56AF02283
:10173000EF4E605490E6A0E020E1F9C3EF9440EE54
:10174000940050068E698F6A8006756900756A403C
:10175000E4FDFCC3ED956AEC95695016ED04FB744D
:10176000402DF582E434E7F583EBF00DBD00010C6C
:1017700080E1E490E68AF090E68BE56AF0C3EF95AD
:091780006AFFEE9569FE80A822C3
:10184C0075435175690F756AE0756B00756C02BF55
:10185C00C00BAD6CAC6BAF6AAE69021475C20812EA
:10186C001C9EE490E68AF090E68BF090E6A0E020D7
:10187C00E1F9AD6C7AE779407F40AB07AF6AAE69AE
:09188C00121367D208121C9E22FF
:101BA300E53CF47003E53BF4601974017E00A83C46
:101BB300088005C333CE33CED8F9FFAD80E4FEEF02
:081BC3005DFF227E007F01227C
:101CBB0090E670E03008094401F0D28843A8012275
:0C1CCB0054FEF0C288E4F54453A8FE2249
:101C9E0090010AE0B40E0B30080443B1022253B196
:0D1CAE00FD22300804438001225380FE22F5
:03004300021200A6
:0300530002120096
:10120000021BCB00021BF20002000E00021C1700A2
:101210000218DC00020F950002000A0002004200E2
:1012200002004A0002005200020FFF000211FF00FC
:101230000217FF00021D5300021D5400021D55003D
:10124000021D560002004200021D5700021D5800F8
:10125000021D5900021D5A00021D5B00021D5C00A8
:10126000021D5D0002004200020042000200420036
:10127000021D5E00021D5F00021D6000021D610074
:10128000021D6200021D6300021D6400021D650054
:10129000021D6600021D6700021D6800021D690034
:1012A000021D6A00021D6B00021D6C00021D6D0014
:0812B000021D6E00021D6F001B
:101B230090E682E030E004E020E60B90E682E030CD
:101B3300E119E030E71590E680E04401F07F147E80
:0C1B43000012196490E680E054FEF022CD
:101C3C0090E682E044C0F090E681F043870100001A
:041C4C000000002272
:101AF40030080990E680E0440AF0800790E680E030
:101B04004408F07FDC7E0512196490E65D74FFF0F2
:0F1B140090E65FF05391EF90E680E054F7F022F7
:101964008E698F6A90E600E05418700DE569C31320
:10197400F569E56A13F56A801590E600E05418FFEE
:10198400BF100BE56A25E0F56AE56933F569E56A98
:10199400156AAE69700215694E6005121C5080EE1E
:0119A4002220
:081D4400E4F51BD2E9D2AF2245
:101A8A00AD0790E678E020E6F9C2E990E678E0440E
:101A9A0080F0ED25E090E679F090E678E030E0F924
:101AAA0090E678E04440F090E678E020E6F990E6A7
:081ABA0078E030E1D6D2E92208
:101AC200AC0790E678E020E6F9E51B702390E67813
:101AD200E04480F0EC25E090E679F08D16AF03A9A2
:101AE200077517018A188919E4F51A751B01D322A3
:021AF200C3220D
:1011CB00AC0790E678E020E6F9E51B702590E67811
:1011DB00E04480F0EC25E0440190E679F08D16AF09
:1011EB0003A9077517018A188919E4F51A751B03EA
:0411FB00D322C32216
:03004B00020E851D
:100E8500C0E0C083C082C085C084C086758600C0AE
:100E9500D075D000C000C001C002C003C006C007A5
:100EA50090E678E030E20A751B06E04440F0020F58
:100EB5007790E678E020E110E51B6402600A751B77
:100EC50007E04440F0020F77E51B24FE605F1460E5
:100ED5003624FE7003020F6824FC7003020F74248D
:100EE500086003020F77AB17AA18A919AF1A051ADC
:100EF5008F8275830012089990E679F0E51A6516D8
:100F05007070751B05806B90E679E0AB17AA18A980
:100F150019AE1A8E827583001208C6751B02E51676
:100F25006401704E90E678E04420F08045E5162493
:100F3500FEB51A0790E678E04420F0E51614B51AD8
:100F45000A90E678E04440F0751B0090E679E0AB46
:100F550017AA18A919AE1A8E827583001208C6053C
:100F65001A800F90E678E04440F0751B0080037509
:100F75001B005391DFD007D006D003D002D001D09B
:100F850000D0D0D086D084D085D082D083D0E03236
:021B4F00A907E4
:101B5100AE14AF158F828E83A3E064037017AD01BD
:101B610019ED7001228F828E83E07C002FFDEC3E07
:081B7100FEAF0580DFE4FEFF7A
:011B79002249
:101CD7001211CBE51B24FA600E146006240770F37B
:0C1CE700D322E4F51BD322E4F51BD3222A
:101CF300121AC2E51B24FA600E146006240770F35F
:0C1D0300D322E4F51BD322E4F51BD3220D
:101C50007400F58690FDA57C05A3E582458370F9A7
:011C60002261
:03000300021D4C8F
:071D4C007544025388FD32CB
:1005DC00020884E86480F8E933E83360110460F0C1
:1005EC00ED33EC337009E8FCE9FDEAFEEBFF220485
:1005FC0060DED3EB9FEA9EE99DE8C2E78CF0C2F780
:10060C0095F0400CE8CCF8E9CDF9EACEFAEBCFFB4B
:10061C0012084F85D0F05804700320D5B3E804704D
:10062C00075002B2D502088E92D5EC0460F7E4CCE8
:10063C00C0E0C398F8603B94186008400DD0E0FB14
:10064C00020866E4FBFAC9FC8028E830E406E4C939
:10065C00FBE4CAFCE830E305E4C9CACBFCE8540768
:10066C006010F8C3E913F9EA13FAEB13FBEC13FC73
:10067C00D8F130F52FC3E49CFCEF9BFFEE9AFEED16
:10068C0099FDD0E0FBEF4E4D4C701222DB030208BB
:10069C008BEC2CFCEF33FFEE33FEED33FDED30E74E
:1006AC00EB020866EF2BFFEE3AFEED39FDD0E0FBD6
:1006BC0050130BBB000302088EED13FDEE13FEEF7F
:0806CC0013FFEC13FC020866A9
:1006D400EC4D6011E8497017ED33EC3304600DE420
:1006E400FCFFFEFD22E933E8330470F802088412AB
:1006F400084F58046009E4CC2481500628500902AC
:10070400088E28400302088BC0E0EB4A7044B9808D
:1007140006D0E0FB02087AEF4E701CBD8008EBFFA8
:10072400EAFEE9FD80EBE98DF0A4FEE5F00207BDE9
:10073400E9CDF9EAFEEBFFEF89F0A4FCE5F0CE8900
:10074400F0A42EFFE435F0CD89F0A42DFEE435F0BD
:100754008067EF4E7005BD80D780C3EF8BF0A4ACEB
:10076400F0EE8BF0A42CFCE435F0F8EF8AF0A42C26
:10077400E5F038FCE433CB8DF0A42CFCE5F03BF839
:10078400EE8AF0A42CFCE5F038F8E433CF89F0A429
:100794002CFCE5F038CF3400CE89F0A42FFFE5F02F
:1007A4003EFEE433C98DF0A42EFEE5F039CD8AF087
:1007B400A42FFFE5F03EFEE43DFD33D0E0FB5007FF
:1007C4000BBB000F02088EEC2CFCEF33FFEE33FE64
:0607D400ED33FD02086692
:1007DA0075F020800E75F010800575F0087D007E9A
:1007EA00007F003392D530D5031208E8EC3340106D
:1007FA00EF33FFEE33FEED33FDEC33FCD5F0ED22A3
:0E080A00E5F0247EA2D513CC92E7CDCEFF22DE
:10081800EDD2E7CD33EC3392D524814006E4FFFED8
:10082800FDFC22FCE4CFCECDCC24E0501174FF8037
:10083800EDC3CC13CCCD13CDCE13CECF13CF0470D4
:07084800F030D5DE0208E8E4
:10084F00E9D2E7C933E833F892D5EDD2E7CD33ECEF
:07085F0033FC5002B2D52268
:10086600EC30E7100FBF000C0EBE00080DBD0004F3
:100876000BEB6014A2D5EB13FCED92E7FD2274FF9F
:10088600FCFDFEFF22E480F8A2D574FF13FC7D80F8
:03089600E480EF0C
:03000000020056A5
:0C005600787FE4F6D8FD75817702009DEC
:10089900BB010CE58229F582E5833AF583E0225014
:1008A90006E92582F8E622BBFE06E92582F8E2225E
:0D08B900E58229F582E5833AF583E4932278
:1008C600F8BB010DE58229F582E5833AF583E8F068
:1008D600225006E92582C8F622BBFE05E92582C814
:0208E600F222FC
:0E08E800C3E49FFFE49EFEE49DFDE49CFC2221
:1008F600EB9FF5F0EA9E42F0E99D42F0E89C45F058
:0109060022CE
:10090700D083D082F8E4937012740193700DA3A37F
:1009170093F8740193F5828883E473740293686093
:06092700EFA3A3A380DF93
:10006200020CE1E493A3F8E493A34003F68001F2C7
:1000720008DFF48029E493A3F85407240CC8C3339F
:10008200C4540F4420C8834004F456800146F6DF6E
:10009200E4800B0102040810204080901C61E47E81
:1000A200019360BCA3FF543F30E509541FFEE49363
:1000B200A360010ECF54C025E060A840B8E493A32A
:1000C200FAE493A3F8E493A3C8C582C8CAC583CA55
:1000D200F0A3C8C582C8CAC583CADFE9DEE780BE0D
:011C80000063
:00000001FF
