:0A00360000010202030304040505A3
:100D0000E4F566F565F564F563C203C200D202C27C
:100D1000011212087E017F008E0A8F0B7512017579
:100D2000131475080175092075100175115075149B
:100D300001751580EE54E07002C145756700756855
:100D4000808E698F6AC374A09FFF74019ECF2402B6
:100D5000CF3400FEE48F628E61F560F55FF55EF5DD
:100D60005DF55CF55BAF62AE61AD60AC5FAB5EAA9A
:100D70005DA95CA85BC31208A55026E568255EF551
:100D800082E567355DF58374CDF0E55E2401F55E9F
:100D9000E4355DF55DE4355CF55CE4355BF55B8081
:100DA000C4E4F55EF55DF55CF55BAF62AE61AD6028
:100DB000AC5FAB5EAA5DA95CA85BC31208A550330B
:100DC000E56A255EF582E569355DF583E0FFE56856
:100DD000255EF582E567355DF583EFF0E55E24017C
:100DE000F55EE4355DF55DE4355CF55CE4355BF5B9
:100DF0005B80B785670A85680B74002480FF7401E7
:100E000034FFFEC3E5139FF513E5129EF512C3E50B
:100E10000D9FF50DE50C9EF50CC3E50F9FF50FE555
:100E20000E9EF50EC3E5099FF509E5089EF508C37A
:100E3000E5119FF511E5109EF510C3E5159FF51519
:100E4000E5149EF514D2E843D82090E668E0440B00
:100E5000F090E65CE0443DF0D2AFD208121C6D90F9
:100E6000E680E054F7F0538EF8C203300105120A11
:100E7000F1C20130032912000E5024C203121DD802
:100E800020001690E682E030E704E020E1EF90E6F3
:100E900082E030E604E020E0E4121C9C1200101214
:040EA0000EA480C755
:100AF10090E6B9E0B40C00400281EC900B0225E0D5
:100B0100736194810E81EC818D81EC81EC611A819C
:100B1100EC618F618A61806185120040400281F839
:100B210090E6BBE024FE602214603324FD601114C2
:100B3100602224067047E50A90E6B3F0E50B8037A2
:100B4100E51290E6B3F0E513802DE50C90E6B3F0E5
:100B5100E50D8023E50E90E6B3F0E50F801990E6F0
:100B6100BAE0FF121CC8AA06A9077B01EA494B603B
:100B71000CEE90E6B3F0EF90E6B4F081F881F1125B
:100B81001ECA81F812001681F8121EEF81F8121E9A
:100B9100B881F8120046400281F890E6B8E0247F5F
:100BA100601514601924027062A200E43325E0FF8D
:100BB100A202E4334F8041E490E740F0803F90E6A9
:100BC100BCE0547EFF7E00E0D394807C0040047D35
:100BD1000180027D00EC4EFEED4F2436F58274005B
:100BE1003EF583E493FF3395E0FEEF24A1FFEE345D
:100BF100E68F82F583E0540190E740F0E4A3F090A2
:100C0100E68AF090E68B7402F081F881F1120048D7
:100C1100400281F890E6B8E024FE601324026002ED
:100C210081F890E6BAE0B40104C20081F881F19044
:100C3100E6BAE0705590E6BCE0547EFF7E00E0D35A
:100C410094807C0040047D0180027D00EC4EFEED2D
:100C51004F2436F58274003EF583E493FF3395E02B
:100C6100FEEF24A1FFEE34E68F82F583E054FEF01F
:100C710090E6BCE05480131313541FFFE0540F2F70
:100C810090E683F0E04420F0806D806412004E50C5
:100C91006690E6B8E024FE60192402705A90E6BA24
:100CA100E0B40104D200804F90E6BAE064026047EC
:100CB100803E90E6BCE0547EFF7E00E0D394807CD1
:100CC1000040047D0180027D00EC4EFEED4F243694
:100CD100F58274003EF583E493FF3395E0FEEF2443
:100CE100A1FFEE34E68F82F58380081201A250073E
:0F0CF10090E6A0E04401F090E6A0E04480F022FD
:03003300020006C2
:0400060053D8EF32AA
:1001000012010002000000406E1300000A0001020C
:020110000001EC
:0A0114000A0600020000004001008E
:1001200009022E0001010060000904000004FF0024
:1001300000000705820200020007050102400000DE
:0E01400007058103400001070586034000010A
:1001500009022E0001010060000904000004FF00F4
:100160000000070582024000000705010240000070
:0E0170000705810340000107058603400001DA
:10018000040309040C0341004E0044004F005200D8
:1001900010035500530042002000430041004D0071
:0201A00000005D
:03000B00021B23B2
:101B2300C0E0C0D075D000C005C006C007C28CAFEE
:101B33008CEFFEAD8AED24D1FDE43463CD2400FFA8
:101B4300ED3E8F8AF58CD28C051DE51D7002051CB8
:0B1B5300D007D006D005D0D0D0E03283
:1000E200C2AFE4F51CF51DC28C5389F0438901753A
:0E00F2008AD1758C63C2B9D2A9D28CD2AF224A
:091EE600C2AFAF1DAE1CD2AF2249
:0A1EDC00C2AFE4F51CF51DD2AF22E1
:101E1E001127416E646F724C6F636B657233363887
:0F1E2E00343100023BFFFF02380000024A00007F
:1012080090E600E054E7441054FDF000000090E63A
:101218007AE054FEF0000000121EF700000090E68D
:101228000B7403F000000090E6017413F000000056
:1012380090E61074A0F090E61174B0F090E6127485
:10124800E0F0E490E613F090E615F090E61474F2FE
:10125800F0000000E490E602F000000090E609F0DB
:1012680000000000000090E6047480F000000074A4
:1012780002F00000007406F0000000E4F000000036
:1012880000000090E618740DF000000090E620744D
:1012980002F0000000E490E621F0000000D281D2C4
:1012A80083D287755602F53F7F0312199290010A7F
:1012B800EFF0000000E4F557F54EF53AF540F54C2F
:1012C800F54DF551F552F559F55AF53DF53E02083B
:0112D800DC39
:1008DC00121DFD8F53C20790010AE064076004E00B
:1008EC00B4081512110D7FEC7EFF1218FDE4F547CC
:1008FC00754F4075B201411C90010AE0640560051A
:10090C00E0640C705C754710754F20D208121DB353
:10091C007F05121992EF30E009C28175B20BD20734
:10092C008007D28175B201C2077F05121992EF3090
:10093C00E21E00000090E60174CBF000000090E68F
:10094C001274E0F000000090E618740DF000000046
:10095C0090010AE0640C600241D3F53B753C074101
:10096C00D390010AE0640E70267F05121992EF30C5
:10097C00E106753B00753C07754710754F20C28129
:10098C0075B20A75B602C2081217E1D207411C9063
:10099C00010AE0640D70237F05121992EF30E10615
:1009AC00753B00753C07754710754F20C28175B2B9
:1009BC000BD207D208121DB3415590010AE0640F07
:1009CC007027754710754F20C28175B20B75B6082C
:1009DC00D207D208121B00D2081218C9D208121D55
:1009EC00B375490675500141D390010AE06411704A
:1009FC0026754780754F20C28175B20875B602C244
:100A0C00081217E1C208121E3ED207D208121B00B0
:100A1C00D208121DB341D390010AE06401704E7FDD
:100A2C0005121992EF30E106753B00753C0375B267
:100A3C0001D208121DB3E4FF121992BFC20575470B
:100A4C00108003E4F547754F1000000090E6187411
:100A5C000CF0000000E490E619F000000090E61A9B
:100A6C00F000000090E61BF0000000805A90010A94
:100A7C00E06409703775B201D208121DB3753B00E2
:100A8C00753C07E4FF121992BFC20575471080032D
:100A9C00E4F5477F05121992EF30E00BC28175B275
:100AAC000BC281D283D207754F10801B90010AE0D4
:100ABC00B40B0B75B280E4F547754F20800975B205
:100ACC0001E4F547754F011200E2D205E4F53FF55C
:100ADC002290010AE064076004E0B408077FEC7E12
:050AEC00FF1218FD22BD
:100EA400200502E1FC90E6A2E020E179121EE6D3DF
:100EB400EF9463EE94004003121EDC90010AE0B448
:100EC4000F22E5B15407B54904E550701790E7C007
:100ED4007408F090E68F7401F0C39550F550E5B1B5
:100EE4005407F549E556B4011BE5AA20E016E5AA26
:100EF40020E0047F0180027F0090E7C0EFF090E6DD
:100F04008F7401F0E53F30E01CE5AA20E0047F0186
:100F140080027F0090E7C0EFF090E68F7401F0D577
:100F24002203E4F53FE5464548425790E6A5E02014
:100F3400E365E5577005E53F30E05CC3E54D955A40
:100F4400FFE54C9559FED3EF9401EE94004005055E
:100F54003A434E80C3E552953EFFE551953DFED39D
:100F6400EF9401EE940040050540434E4090F80094
:100F7400E557F055466003E4F546E54855576003E8
:100F8400E4F548E4F557854C59854D5A85513D851E
:100F9400523E90E69904F0121D1CEF4E6030E4F5C9
:100FA40038F539C3E54B940AE54A648094804008D7
:100FB40090E680E054F7F022C3E54B940BE54A64D5
:100FC4008094805033054BE54B702D054A22E4F59F
:100FD4004AF54BE539640A4538700890E680E044E8
:100FE40008F022C3E539940BE538648094805008F6
:090FF4000539E5397002053822C7
:02000E00D322FB
:02001000D322F9
:02004000D322C9
:081EEF0090E6BAE0F558D32299
:101EB80090E740E558F0E490E68AF090E68B04F06D
:021EC800D32223
:1000160090E6BAE0F54390E6837411F07431F0741B
:0D00260001F07421F07412F07432F0D32256
:101ECA0090E740E543F0E490E68AF090E68B04F070
:021EDA00D32211
:02004600D322C3
:02004800D322C1
:02004E00D322BB
:10154A0090E6B8E06440707690E6BFE0FE90E6BEB2
:10155A00E0FDEDFFD39400EE94004062E490E68A49
:10156A00F090E68BF090E6A0E020E1F990E68BE0BF
:10157A006F7001EE7048EF64104E7042FFFE7440C7
:10158A002FF582E434E7F583E0FD74272FF8E66D42
:10159A006002C3220FBF00010EEF64104E70DF908D
:1015AA00E6B9E0B4C11190010AE06407600EE06494
:1015BA00086009C2088002D208121DB3D322C322CE
:1001A20090E6B9E01208B6022DB002B3B1025DB218
:1001B200025DB3031DB4034FB70388B80417B90433
:1001C20027BB01F5BD020FBE056EBF0497C10497A0
:1001D200C20452C30473C4049CC5051CC603FCC7F5
:1001E20003C4C804D7CC02D0D00300D10437EE0038
:1001F20000058990E6BFE0756D00F56E756E00F53D
:100202006D90E6BEE0426EE4121785A18990E6BFCA
:10021200E0756D00F56E756E00F56D90E6BEE0421C
:100222006EE4AF6EAE6D121800A18990E6BBE07568
:100232006B00F56C756C00F56B90E6BAE0426C12DF
:1002420018AC90E6B8E0AD6EAC6DAF6CAE6BB4C0FE
:100252000512144241C912185941C990E6B9E090F9
:10026200E6BBB4B205E045478001E0756B00F56C72
:10027200E56C756C00F56B90E6BAE0426C90E6BCFA
:10028200E0F54590E6BFE0756D00F56E756E00F520
:100292006D90E6BEE0426EE490E6B8E0AD6EAC6D05
:1002A200AF6CAE6BB4C0051214C6A1891216B8A108
:1002B200891218AC90E6B8E0AF6EAE6DB4C005120C
:1002C20016488003121A1ED2081218C9A18990E694
:1002D200BBE0756B00F56C756C00F56B90E6BAE0EF
:1002E200426C121AE390E6B8E0AD6EAC6DAF6CAE44
:1002F2006BB4C005121442801B1218598016121AD0
:10030200E390E6B8E0AF6EAE6DB4C0051216488059
:1003120003121A1ED208121B00A18900000000005D
:100322000090E6047480F00000000000007402F007
:100332000000000000007406F0000000000000E46D
:10034200F000000000000090E7C0F0A18990E6B83C
:10035200E064C06002A18990E6A0E020E1F990018A
:100362000AE090E740F090010CE49390E741F090AE
:10037200E60AE090E742F0A3E54FF0A207E433A3D8
:10038200F0E4A3F0806890E6B8E064C06002A1895E
:1003920090E6A0E020E1F990E740E544F090E62005
:1003A200E090E741F090E621E090E742F090E6002D
:1003B200E090E743F0E490E68AF090E68B7404F074
:1003C200A18990E6B8E064C06002A18990E6A0E04D
:1003D20020E1F990E740E53AF0E54CA3F0E54DA3C2
:1003E200F0A3E540F0E551A3F0E552A3F0E490E676
:1003F2008AF090E68B7406F0A18990E6B8E064C0BA
:100402006002A18990E6A0E020E1F9E5B1540790ED
:10041200E740F081ED90E65EE04410F090E65CE0AB
:100422004402F0A18990E65EE054EFF090E65CE0D1
:1004320054FDF0A18990E680E0540DF0E04408F00C
:100442007FDC7E05121AA290E680E054F5F0A189C5
:1004520090E6B8E064406002A18990E68AF090E6F6
:100462008BF090E6A0E020E1F990E740E0F556A19C
:100472008990E6B8E064406002A18990E68AF09033
:10048200E68BF090E6A0E020E1F990E740E0F53F4E
:10049200752202A18912154AA18990E6B8E0B4C07A
:1004A2001190E6A0E020E1F9A287E43390E740F062
:1004B200803990E6B8E064406002A18990E68AF053
:1004C20090E68BF090E6A0E020E1F990E740E0248E
:1004D200FF9287A18990E6B8E0B4C01B90E6A0E045
:1004E20020E1F9A205E43390E740F0E490E68AF0D7
:1004F20090E68B04F0A18990E6B8E064406002A126
:100502008990E68AF090E68BF090E6A0E020E1F98F
:1005120090E740E024FF9205806D90E6BAE0245F08
:10052200601B14601C24F1601F14602014602424DA
:1005320013705490E6B8E0FF121949804AD208803D
:1005420002C2081217E1803FD2088002C208121EBE
:100552003E8034E4F54CF54DF551F552F559F55A16
:10056200F53DF53EF53AF540F54E801BE490E68AFE
:10057200F090E68BF090E6A0E020E1F990E740E011
:0905820090010AF01208DCC3220A
:1012D900C0E0C083C082C085C084C086758600D244
:1012E900015391EF90E65D7401F0D086D084D085EA
:0712F900D082D083D0E03267
:101D4400C0E0C083C082C085C084C086758600534D
:101D540091EF90E65D7404F0D086D084D085D08273
:051D6400D083D0E03245
:101D6900C0E0C083C082C085C084C0867586005328
:101D790091EF90E65D7402F0D086D084D085D08250
:051D8900D083D0E03220
:1019D900C0E0C083C082C085C084C086758600858A
:1019E900100C85110D850D82850C83A37402F08579
:1019F900080E85090F850F82850E83A37407F0539E
:101A090091EF90E65D7410F0D086D084D085D082B5
:051A1900D083D0E03293
:101D8E00C0E0C083C082C085C084C0867586005303
:101D9E0091EF90E65D7408F0D086D084D085D08225
:051DAE00D083D0E032FB
:10172500C0E0C083C082C085C084C0867586009035
:10173500E680E030E73485080C85090D850D828546
:101745000C83A37402F085100E85110F850F828519
:101755000E83A37407F000000090E6207402F000E9
:10176500000090E621E4F00000005391EF90E65D63
:101775007420F0D086D084D085D082D083D0E0325A
:01000A0032C3
:0100120032BB
:01004200328B
:01004A003283
:01005000327D
:01005100327C
:01005200327B
:0117FD0032B9
:0117FE0032B8
:0117FF0032B7
:011EFF0032B0
:011F000032AE
:011F010032AD
:011F020032AC
:011F030032AB
:011F040032AA
:011F050032A9
:011F060032A8
:011F070032A7
:011F080032A6
:011F090032A5
:011F0A0032A4
:011F0B0032A3
:011F0C0032A2
:011F0D0032A1
:011F0E0032A0
:011F0F00329F
:011F1000329E
:011F1100329D
:011F1200329C
:011F1300329B
:011F1400329A
:011F15003299
:011F16003298
:011F17003297
:011F18003296
:101992008F6FE490E000F0A3E56FF07AE07B007DCA
:1019A200027F51121E767AE07B027D017F51121E68
:1019B2005AE56FB4031B90E002E0FFC394014006B6
:1019C200EFD39411400B900108746EF0E490E002A2
:0719D200F090E002E0FF22AB
:101DFD00E490E000F07AE07B007D017F70121E76AA
:101E0D007AE07B017D017F70121E5A90E001E0FFA8
:011E1D0022A2
:101442008E6F8F708C718D72E5724571607590E64A
:10145200A0E020E1F9C3E5729440E57194005008E0
:101462008571738572748006757300757440E4FF2C
:10147200FEC3EF9574EE9573501474402FF582E419
:1014820034E7F58374CDF00FBF00010E80E3AD7435
:101492007AE779407F40AB07AF70AE6F121B97E4DB
:1014A20090E68AF090E68BE574F02570F570E573AE
:1014B200356FF56FC3E5729574F572E5719573F545
:0414C200718085228E
:101859008E6F8F708C718D72E57245716044E49062
:10186900E68AF090E68BF090E6A0E020E1F990E6B8
:101879008BE0757300F574FD7AE779407F40AB071B
:10188900AF70AE6F121B5EE5742570F570E57335A8
:101899006FF56FC3E5729574F572E5719573F5711E
:0318A90080B622E4
:1014C6008E738F748C758D76E5764575607590E6AE
:1014D600A0E020E1F9C3E5769440E5759400500854
:1014E6008575778576788006757700757840E4FF90
:1014F600FEC3EF9578EE9577501474402FF582E48D
:1015060034E7F58374CDF00FBF00010E80E3AD78AC
:101516007AE779407F40AB07AF74AE73121CF3E4F1
:1015260090E68AF090E68BE578F02574F574E57719
:101536003573F573C3E5769578F576E5759577F5A4
:041546007580852205
:1016B8008E6F8F708C718D7290E6BCE0F54590E668
:1016C800BFE0757100F572757200F57190E6BEE0C5
:1016D8004272E57245716044E490E68AF090E68BC8
:1016E800F090E6A0E020E1F990E68BE0757300F554
:1016F80074FD7AE779407F40AB07AF70AE6F121385
:10170800B8E5742570F570E573356FF56FC3E5724C
:0D1718009574F572E5719573F57180B62238
:101648008E6F8F70E570456F606590E6A0E020E1D1
:10165800F9C3E5709440E56F94005008856F718573
:1016680070728006757100757240E4FFFEC3EF95D5
:1016780072EE9571501474402FF582E434E7F583C7
:1016880074CDF00FBF00010E80E3AD727AE77B40A6
:10169800AF45121E5AE490E68AF090E68BE572F0A8
:1016A800C3E5709572F570E56F9571F56F809522B9
:101A1E008E6F8F70E570456F6032E490E68AF090BD
:101A2E00E68BF090E6A0E020E1F990E68BE0757190
:101A3E0000F572FD7AE77B40AF45121E76C3E57066
:101A4E009572F570E56F9571F56F80C890E678E048
:031A5E00F544222A
:10110D00D20890E000741FF0A3E4F0A3744DF0A397
:10111D00747DF0E4A3F0A304F0A304F0A304F0A302
:10112D0004F0A304F0A304F0A304F0E4A3F0A3746B
:10113D0080F0E4A3F0A3F0A3F0A37408F0A314F0DF
:10114D00A3745BF07AE07B127D027F52121E767AD9
:10115D00E07B147D027F52121E5A90E014E0FF12C4
:10116D001A6190E0127401F0A37438F07AE07B12EA
:10117D007D027F2A121E7690E004E0FF90E00DE0E4
:10118D00FE90E00CE04EFD7C001215D38208920813
:10119D0090E005E0FF90E001E0FCA3E0FD1215D327
:1011AD008208920890E006E090E0031215CE8208C6
:1011BD00920890E007E0FF90E010E0FCA3E0FD90C6
:1011CD00E00EE04CFCA3E04DFD1215D38208920811
:1011DD0090E0081215CA8208920890E0091215CA0B
:1011ED008208920890E00A1215CA8208920890E0CF
:0B11FD000B1215CA82089208A20822FB
:0915CA00E090E000FFE0FD7C0070
:1015D300EFD394075008ED94FFEC94074002C32225
:1015E300EF25E0FBE433FAEDAE047805C333CE33E5
:1015F300CED8F9FFEE4AFEEF4BFDAC06E4FBFAF959
:10160300EB25E0FBEA33FAEDAE04A801088005CE32
:10161300C313CE13D8F95401FFEF420309B910E005
:10162300AF02AE0390E01574C8F0A3EFF0A3EEF0A1
:101633007AE07B157D037F70121E7600000090E632
:0516430078E0A2E122A5
:101A610090E043EFF090E04A30E00E74D3F0752639
:101A71007B752514752404800C74D3F0752652757A
:101A810025B875241E75234290E01574C9F090E0C5
:101A910043E090E016F07AE07B157D027F70021E34
:011AA10076CE
:1013B8008E758F768D778A788B79E577607BAF4FDE
:1013C800E576FDE54F145DFEC3EF9EFFE577C39F0D
:1013D800500585777C80028F7CE57590E000F0A34E
:1013E800EDF0757AE0757B02AF7CEF60250579E555
:1013F80079AC787002057814F5828C83E0FE057B61
:10140800E57BAC7A7002057A14F5828C83EEF01FC6
:1014180080D8E57C2402FD7AE07B00AF45121E7679
:10142800AF45121BCFE57C2576F576E43575F57565
:0A143800C3E577957CF577808122EB
:101CF3008E798F7A8D7B8A7C8B7DE57990E000F0FD
:101D0300EFA3F07AE07B007D02AF45121E76AB7D38
:091D1300AA7CAD7BAF45021E5A0B
:101B5E008A758B76EF90E000F08D77E5776029053A
:101B6E0076E576AE757002057514F5828E83E0907B
:101B7E00E001F07AE07B007D02AF45121E7690E028
:091B8E0000E004F0157780D32279
:101B97008A758B76EF90E000F08D77E57760287A8D
:101BA700E07B007D01AF45121E760576E576AA75C6
:101BB7007002057514FB7D01AF45121E5A90E000B7
:081BC700E004F0157780D42240
:1018FD0090E0007440F0AD07AC06EC12078E7B5300
:10190D007A05795B78C01206837B5C7A8F791978BA
:10191D00431205921207C790E001EFF07AE07B00C9
:10192D007D027F4C121E7690E00074B0F0A374011E
:0C193D00F07AE07B007D027F70021E76D5
:1017850090E6A0E020E1F9756F00757003E4FF7E37
:101795000390E74074CDF0A3DEFC75454C7AE779FC
:1017A500407F40AB077D017F407E00121B977AE7A3
:1017B50079407F40AB077D017F407E00121B977A01
:1017C500E779417EE77F41AB077D027F4D121E5AC7
:0C17D500E490E68AF090E68BE570F022CC
:10180000EF4E605490E6A0E020E1F9C3EF9440EE83
:10181000940050068E6F8F708006756F0075704053
:10182000E4FDFCC3ED9570EC956F5016ED04FB7470
:10183000402DF582E434E7F583EBF00DBD00010C9B
:1018400080E1E490E68AF090E68BE570F0C3EF95D6
:0918500070FFEE956FFE80A822E6
:10194900754551756F0F7570E0757100757202BF3D
:10195900C00BAD72AC71AF70AE6F0214C6C2081283
:101969001DB3E490E68AF090E68BF090E6A0E020C3
:10197900E1F9AD727AE779407F40AB07AF70AE6F9E
:091989001213B8D208121DB3229A
:101D1C00E53CF47003E53BF4601974017E00A83CCB
:101D2C00088005C333CE33CED8F9FFAD80E4FEEF87
:081D3C005DFF227E007F012201
:1017E10090E670E03008094401F0D28843A8012254
:0C17F10054FEF0C288E4F54653A8FE2226
:101E3E0090E670E03008094402F0D28A43A80422EA
:0C1E4E0054FDF0C28AE4F54853A8FB22C2
:101DB30090010AE0B40E0B30080443B1022253B180
:101DC300FD2290010AE06411600A30080443800197
:051DD300225380FE22F6
:101AE30090E6BCE0F54590E6BFE0756D00F56E75D8
:0D1AF3006E00F56D90E6BEE0426EE4C208A4
:101B0000200810C28390010AE0B4110443B10222FC
:101B1000D28122D28390010AE0B4110453B1FD2294
:031B2000C281225D
:1018AC0090E6BCE0F54590E6BFE0756D00F56E7511
:0D18BC006E00F56D90E6BEE0426EE4C208DD
:1018C90090010AE0640F702BD20990E6BCE0642C09
:1018D9006013E06441600EE0644A6009E0644D60B1
:1018E90004E0B46104A208920930090443B1082252
:0418F90053B1F722CE
:03004300021300A5
:0300530002130095
:101300000212D900021D6900021D4400021D8E0058
:101310000219D9000217250002000A00020012007B
:101320000200420002004A00020050000200510088
:10133000020052000217FD000217FE000217FF0014
:10134000021EFF0002001200021F0000021F010027
:10135000021F0200021F0300021F0400021F0500FB
:10136000021F06000200120002001200020012001A
:10137000021F0700021F0800021F0900021F0A00C7
:10138000021F0B00021F0C00021F0D00021F0E00A7
:10139000021F0F00021F1000021F1100021F120087
:1013A000021F1300021F1400021F1500021F160067
:0813B000021F1700021F1800C4
:101C9C0090E682E030E004E020E60B90E682E03053
:101CAC00E119E030E71590E680E04401F07F147E06
:0C1CBC0000121AA290E680E054FEF02214
:101DD80090E682E044C0F090E681F043870100007D
:041DE80000000022D5
:101C6D0030080990E680E0440AF0800790E680E0B5
:101C7D004408F07FDC7E05121AA290E65D74FFF039
:0F1C8D0090E65FF05391EF90E680E054F7F0227D
:101AA2008E6F8F7090E600E05418700DE56FC313CF
:101AB200F56FE57013F570801590E600E05418FF9D
:101AC200BF100BE57025E0F570E56F33F56FE5703B
:101AD2001570AE6F7002156F4E6005121DEC80EE30
:011AE20022E1
:081EF700E4F51BD2E9D2AF2291
:101BCF00AD0790E678E020E6F9C2E990E678E044C8
:101BDF0080F0ED25E090E679F090E678E030E0F9DE
:101BEF0090E678E04440F090E678E020E6F990E661
:081BFF0078E030E1D6D2E922C2
:101C3B00AC0790E678E020E6F9E51B702390E67898
:101C4B00E04480F0EC25E090E679F08D16AF03A927
:101C5B00077517018A188919E4F51A751B01D32228
:021C6B00C32292
:101C0700AC0790E678E020E6F9E51B702590E678CA
:101C1700E04480F0EC25E0440190E679F08D16AFC2
:101C270003A9077517018A188919E4F51A751B03A3
:041C3700D322C322CF
:03004B00020FFDA4
:100FFD00C0E0C083C082C085C084C086758600C035
:10100D00D075D000C000C001C002C003C006C0072B
:10101D0090E678E030E20A751B06E04440F00210DD
:10102D00EF90E678E020E110E51B6402600A751B85
:10103D0007E04440F00210EFE51B24FE605F1460F2
:10104D003624FE70030210E024FC70030210EC2421
:10105D000860030210EFAB17AA18A919AF1A051AE9
:10106D008F8275830012084890E679F0E51A6516AF
:10107D007070751B05806B90E679E0AB17AA18A907
:10108D0019AE1A8E82758300120875751B02E5164E
:10109D006401704E90E678E04420F08045E516241A
:1010AD00FEB51A0790E678E04420F0E51614B51A5F
:1010BD000A90E678E04440F0751B0090E679E0ABCD
:1010CD0017AA18A919AE1A8E827583001208750514
:1010DD001A800F90E678E04440F0751B0080037590
:1010ED001B005391DFD007D006D003D002D001D022
:1010FD0000D0D0D086D084D085D082D083D0E032BD
:021CC800A9076A
:101CCA00AE14AF158F828E83A3E064037017AD0143
:101CDA0019ED7001228F828E83E07C002FFDEC3E8D
:081CEA00FEAF0580DFE4FEFF00
:011CF20022CF
:101E5A00121C07E51B24FA600E146006240770F3AF
:0C1E6A00D322E4F51BD322E4F51BD322A5
:101E7600121C3BE51B24FA600E146006240770F35F
:0C1E8600D322E4F51BD322E4F51BD32289
:101DEC007400F58690FDA57C05A3E582458370F90A
:011DFC0022C4
:03000300021E9248
:101E9200C0E0054DE54D7002054C7546025388FDC4
:031EA200D0E0325B
:03001300021EA525
:101EA500C0E00552E552700205517548015388F7A7
:031EB500D0E03248
:10058B00020833E86480F8E933E83360110460F063
:10059B00ED33EC337009E8FCE9FDEAFEEBFF2204D6
:1005AB0060DED3EB9FEA9EE99DE8C2E78CF0C2F7D1
:1005BB0095F0400CE8CCF8E9CDF9EACEFAEBCFFB9D
:1005CB001207FE85D0F05804700320D5B3E80470F1
:1005DB00075002B2D502083D92D5EC0460F7E4CC8B
:1005EB00C0E0C398F8603B94186008400DD0E0FB66
:1005FB00020815E4FBFAC9FC8028E830E406E4C9DC
:10060B00FBE4CAFCE830E305E4C9CACBFCE85407B9
:10061B006010F8C3E913F9EA13FAEB13FBEC13FCC4
:10062B00D8F130F52FC3E49CFCEF9BFFEE9AFEED67
:10063B0099FDD0E0FBEF4E4D4C701222DB0302080C
:10064B003AEC2CFCEF33FFEE33FEED33FDED30E7F0
:10065B00EB020815EF2BFFEE3AFEED39FDD0E0FB78
:10066B0050130BBB000302083DED13FDEE13FEEF21
:08067B0013FFEC13FC0208154B
:10068300EC4D6011E8497017ED33EC3304600DE471
:10069300FCFFFEFD22E933E8330470F8020833124D
:1006A30007FE58046009E4CC24815006285009024F
:1006B300083D28400302083AC0E0EB4A7044B98081
:1006C30006D0E0FB020829EF4E701CBD8008EBFF4B
:1006D300EAFEE9FD80EBE98DF0A4FEE5F002076C8C
:1006E300E9CDF9EAFEEBFFEF89F0A4FCE5F0CE8952
:1006F300F0A42EFFE435F0CD89F0A42DFEE435F00F
:100703008067EF4E7005BD80D780C3EF8BF0A4AC3C
:10071300F0EE8BF0A42CFCE435F0F8EF8AF0A42C77
:10072300E5F038FCE433CB8DF0A42CFCE5F03BF88A
:10073300EE8AF0A42CFCE5F038F8E433CF89F0A47A
:100743002CFCE5F038CF3400CE89F0A42FFFE5F080
:100753003EFEE433C98DF0A42EFEE5F039CD8AF0D8
:10076300A42FFFE5F03EFEE43DFD33D0E0FB500750
:100773000BBB000F02083DEC2CFCEF33FFEE33FE06
:06078300ED33FD02081534
:1007890075F020800E75F010800575F0087D007EEB
:10079900007F003392D530D503120897EC3340100F
:1007A900EF33FFEE33FEED33FDEC33FCD5F0ED22F4
:0E07B900E5F0247EA2D513CC92E7CDCEFF2230
:1007C700EDD2E7CD33EC3392D524814006E4FFFE2A
:1007D700FDFC22FCE4CFCECDCC24E0501174FF8089
:1007E700EDC3CC13CCCD13CDCE13CECF13CF047026
:0707F700F030D5DE02089787
:1007FE00E9D2E7C933E833F892D5EDD2E7CD33EC41
:07080E0033FC5002B2D522B9
:10081500EC30E7100FBF000C0EBE00080DBD000444
:100825000BEB6014A2D5EB13FCED92E7FD2274FFF0
:10083500FCFDFEFF22E480F8A2D574FF13FC7D8049
:03084500E480EF5D
:03000000020056A5
:0C005600787FE4F6D8FD75817D02009DE6
:10084800BB010CE58229F582E5833AF583E0225065
:1008580006E92582F8E622BBFE06E92582F8E222AF
:0D086800E58229F582E5833AF583E49322C9
:10087500F8BB010DE58229F582E5833AF583E8F0B9
:10088500225006E92582C8F622BBFE05E92582C865
:02089500F2224D
:0E089700C3E49FFFE49EFEE49DFDE49CFC2272
:1008A500EB9FF5F0EA9E42F0E99D42F0E89C45F0A9
:0108B5002220
:1008B600D083D082F8E4937012740193700DA3A3D1
:1008C60093F8740193F5828883E4737402936860E5
:0608D600EFA3A3A380DFE5
:10006200020D00E493A3F8E493A34003F68001F2A7
:1000720008DFF48029E493A3F85407240CC8C3339F
:10008200C4540F4420C8834004F456800146F6DF6E
:10009200E4800B0102040810204080901E1EE47EC2
:1000A200019360BCA3FF543F30E509541FFEE49363
:1000B200A360010ECF54C025E060A840B8E493A32A
:1000C200FAE493A3F8E493A3C8C582C8CAC583CA55
:1000D200F0A3C8C582C8CAC583CADFE9DEE780BE0D
:011E3D0000A4
:00000001FF
