:0A0EB2000001020203030404050519
:10059700E4F52EF52DF52CF52BC20BC208D20AC2B5
:1005A70009120A0B7E017F008E0A8F0B75120175E7
:1005B7001314750801750920751001751148751414
:1005C70001751570EE54E070030206DD752F007596
:1005D70030808E318F32C3748E9FFF74019ECF247B
:1005E70002CF3400FEE48F2A8E29F528F527F52659
:1005F700F525F524F523AF2AAE29AD28AC27AB2680
:10060700AA25A924A823C31208A25026E530252627
:10061700F582E52F3525F58374CDF0E5262401F520
:1006270026E43525F525E43524F524E43523F5239B
:1006370080C4E4F526F525F524F523AF2AAE29ADC8
:1006470028AC27AB26AA25A924A823C31208A250A1
:1006570033E5322526F582E5313525F583E0FFE5DB
:10066700302526F582E52F3525F583EFF0E526249D
:1006770001F526E43525F525E43524F524E435236D
:10068700F52380B7852F0A85300B74002480FF740B
:100697000134FFFEC3E5139FF513E5129EF512C360
:1006A700E50D9FF50DE50C9EF50CC3E50F9FF50FC6
:1006B700E50E9EF50EC3E5099FF509E5089EF508C9
:1006C700C3E5119FF511E5109EF510C3E5159FF5DC
:1006D70015E5149EF514D2E843D82090E668E04467
:1006E70009F090E65CE0443DF0D2AF90E680E02070
:1006F700E105D210120C5A90E680E054F7F0538EC1
:10070700F8C20B300905120190C209300B291208F3
:10071700FE5024C20B1208D920081690E682E0305A
:10072700E704E020E1EF90E682E030E604E020E035
:0C073700E4120C89120ED8120D0480C7C9
:1001900090E6B9E070030202411470030202BE242B
:1001A000FE700302034124FB700302023B14700340
:1001B000020235146073146076240560030203A004
:1001C000120EDA40030203AC90E6BBE024FE60228C
:1001D00014603324FD601114602224067048E50A7F
:1001E00090E6B3F0E50B8037E51290E6B3F0E51347
:1001F000802DE50C90E6B3F0E50D8023E50E90E64A
:10020000B3F0E50F801990E6BAE0FF120CB5AA062C
:10021000A9077B01EA494B600DEE90E6B3F0EF9041
:10022000E6B4F00203AC0203A5120E690203AC129D
:100230000EC40203AC120EBC0203AC120E57020332
:10024000AC120EDC40030203AC90E6B8E0247F6001
:100250001514601924027063A208E43325E0FFA29C
:100260000AE4334F8041E490E740F0803F90E6BCE1
:10027000E0547EFF7E00E0D394807C0040047D014A
:1002800080027D00EC4EFEED4F24B2F582740E3EEE
:10029000F583E493FF3395E0FEEF24A1FFEE34E60F
:1002A0008F82F583E0540190E740F0E4A3F090E6FC
:1002B0008AF090E68B7402F00203AC0203A5120EE2
:1002C000DE40030203AC90E6B8E024FE6016240290
:1002D00060030203AC90E6BAE0B40105C208020371
:1002E000AC0203A590E6BAE0705590E6BCE0547EFF
:1002F000FF7E00E0D394807C0040047D0180027D7D
:1003000000EC4EFEED4F24B2F582740E3EF583E410
:1003100093FF3395E0FEEF24A1FFEE34E68F82F5E4
:1003200083E054FEF090E6BCE05480131313541F96
:10033000FFE0540F2F90E683F0E04420F0806D80C2
:1003400064120EE0506690E6B8E024FE60192402C4
:10035000705A90E6BAE0B40104D208804F90E6BA31
:10036000E064026047803E90E6BCE0547EFF7E0081
:10037000E0D394807C0040047D0180027D00EC4E3F
:10038000FEED4F24B2F582740E3EF583E493FF3305
:1003900095E0FEEF24A1FFEE34E68F82F58380081E
:1003A0001203B4500790E6A0E04401F090E6A0E00C
:0303B0004480F096
:0103B3002227
:03003300020ED4E6
:040ED40053D8EF32CE
:1001000012010002000000406E13074000000102CF
:020110000001EC
:0A0114000A0600020000004001008E
:100120000902270001010060000904000003FF002C
:1001300000000705820200020007050102400000DE
:070140000705810340000ADE
:100148000902270001010060000904000003FF0004
:100158000000070582024000000705010240000078
:070168000705810340000AB6
:10017000040309040C0341004E0044004F005200E8
:100180000E034E004500570054004F004E00000083
:100A0B0090E600E054E74410F000000090E601741B
:100A1B00C0F0000000120ECC90E61074A0F090E62F
:100A2B001174B0F090E61274E2F0E4F5B57F0512A4
:100A3B000CE0EF30E00B5380F975490675B202807C
:0D0A4B00095380FD754902E4F5B2C20F2287
:100D0400300D03120080300F18E5AA20E113000013
:100D14000090E6907402F0000000E490E691F0C2C6
:020D24000F229C
:0208FE00D32203
:020ED800D32223
:020EDA00D32221
:080EBC0090E6BAE0F54AD322EA
:100E570090E740E54AF0E490E68AF090E68B04F0EC
:020E6700D32294
:080EC40090E6BAE0F53ED322EE
:100E690090E740E53EF0E490E68AF090E68B04F0E6
:020E7900D32282
:020EDC00D3221F
:020EDE00D3221D
:020EE000D3221B
:1003B40090E6B9E01208B303DDB0049DB204C1B302
:1003C40004D6B604E8B7051CB80531B9056ABB05FF
:1003D4003DBD058FC00000059590E6BBE075330078
:1003E400F534753400F53390E6BAE0423490E6BC57
:1003F400E0F54290E6BFE0753500F536753600F558
:100404003590E6BEE04236C20EE542B45102D20E49
:1004140090E6B8E064C06003020595E536453570A2
:100424000302059590E6A0E020E1F9C3E536944087
:10043400E53594005008853537853638800675379C
:1004440000753840E4FFFEC3EF9538EE953750143D
:1004540074402FF582E434E7F58374CDF00FBF00C8
:10046400010E80E3AD387AE779407F40AB07AF34C3
:10047400AE33120A58E490E68AF090E68BE538F041
:100484002534F534E5373533F533C3E5369538F59A
:1004940036E5359537F535808290E6B8E0644060FE
:1004A40003020595120E7B000000E4F545F546F5C0
:1004B40047D20C90E68D04F0D20D02059590E6B873
:1004C400E064406003020595120D9EC20DC20C0249
:1004D400059590E6B8E064C06003020595120C2A05
:1004E4008F43805090E6B8E064C0600302059590A5
:1004F400E6A0E020E1F990E7407403F0A37405F06E
:10050400FF120CE090E742EFF0E4A3F090E68AF0EB
:1005140090E68B7404F0807990E6B8E064407071E2
:10052400120E7B90E6BCE0FF120E418064A2B5E49B
:1005340033F543FF120DE7805890E6B8E06440704D
:1005440050120E7B90E6BDE0754500F546754600F9
:10055400F54590E6BCE04246E4F53FAF46AE4512B1
:1005640009B8D20F802090E6B8E064C07023120E60
:100574007B1200F1C2B17FAB120D4D120B1B120D99
:10058400268F43120DE7120D9E8006120E7B120E6B
:020594008CC316
:010596002242
:100DB700C0E0C083C082D2095391EF90E65D740111
:080DC700F0D082D083D0E032AD
:100E1500C0E0C083C0825391EF90E65D7404F0D0CA
:060E250082D083D0E03210
:100E2B00C0E0C083C0825391EF90E65D7402F0D0B6
:060E3B0082D083D0E032FA
:100B8E00C0E0C083C08285100C85110D850D828555
:100B9E000C83A37402F085080E85090F850F8285DC
:100BAE000E83A37407F05391EF90E65D7410F0D0AE
:060BBE0082D083D0E0327A
:100DCF00C0E0C083C082D20B5391EF90E65D7408F0
:080DDF00F0D082D083D0E03295
:100ADE00C0E0C083C08290E680E030E72085080C3D
:100AEE0085090D850D82850C83A37402F085100E89
:100AFE0085110F850F82850E83A37407F05391EF36
:0D0B0E0090E65D7420F0D082D083D0E032FC
:010EE20032DD
:010EE30032DC
:010EE40032DB
:010EE50032DA
:010EE60032D9
:010EE70032D8
:010EE80032D7
:010EE90032D6
:010EEA0032D5
:010EEB0032D4
:010EEC0032D3
:010EED0032D2
:010EEE0032D1
:010EEF0032D0
:010EF00032CF
:010EF10032CE
:010EF20032CD
:010EF30032CC
:010EF40032CB
:010EF50032CA
:010EF60032C9
:010EF70032C8
:010EF80032C7
:010EF90032C6
:010EFA0032C5
:010EFB0032C4
:010EFC0032C3
:010EFD0032C2
:010EFE0032C1
:010EFF0032C0
:010F000032BE
:010F010032BD
:010F020032BC
:010F030032BB
:010F040032BA
:010F050032B9
:100E7B008549B2C2B4D2B0D2B1C2B275B557020075
:010E8B00F175
:100D9E00D2B1C2B0D2B4D2B2E549B4060575B20230
:090DAE008003E4F5B2E4F5B5227E
:0A0EA700E4FFC2B60FBF04FAD2B692
:010EB100221E
:10008000300C15C20CD2B1120D47D2B1D2B1C2B1EF
:100090007F02120D4D120B1B90E6A1E020E151E50D
:1000A00047B4041FD2B11200F10546E546700205BF
:1000B00045E4F547120D49D2B1C2B17F02120D4D90
:1000C000120B1B90E68DE0F534E4F533E533C39570
:1000D00034501574802533F582E434E7F583E0F578
:1000E00048120DFE053380E4054790E68D7401F05B
:0100F00022ED
:0E00F100E4FFFE0FBF00010EBE24F8BF01F5B4
:0100FF0022DE
:060D4700D2B1C2B17F062B
:020D4D00AE07EF
:100D4F00E4FDEEA805088002C333D8FC3392B2123B
:060D5F000EA70DBD08EC1B
:010D6500226B
:040B1B00AF46AE45EE
:040B1F008E398F3A42
:100B2300E4FBFAAF03E53AAE39A807088005C333FF
:100B3300CE33CED8F9EE3392B2120EA70BBB00011F
:100B43000AEB64104A70DCE4FEC2B2120EA70EBEBA
:020B530008F7A1
:010B5500227D
:100C2A00E4FC7B07D2B1C2B10000007F05120D4D72
:100C3A00E4FE120EA7E4A2B333FFA803088002C39E
:0F0C4A0033D8FCFF42041B0EBE08E7D2B1AF0443
:010C59002278
:100E4100AC07120D47D2B1C2B17F01120D4DAF04F3
:060E5100120D4DD2B1228A
:0F0E8C00120D47D2B1C2B17FC7120D4DD2B122A4
:100D2600E4FE7D07FC120EA7E4A2B333FFA8050874
:100D36008002C333D8FCFF42061D0CBC08E7AF0691
:010D4600228A
:0409B800AB07AA06D9
:1009BC00D2B1C2B17F03120D4DAF03AE02120B1FA9
:1009CC00E4FFFEE4F9FDE4FCC2B60CBC04FAD2B6BA
:1009DC00E4A2B333FCA805088002C333D8FCFC4264
:1009EC00010DBD08E174002FF58274F03EF583E92A
:0E09FC00F00FBF00010EE4B507C9EEB402C54E
:010A0A0022C9
:100DE70090E6A0E020E1F990E740EFF0E490E68A92
:070DF700F090E68B04F022EE
:0A0A58008E398F3A8D3B8A3C8B3DAE
:100A6200E4FD300E12E539FF7E000DEE2400F58222
:100A7200E43410F583EFF0AE050D74002EF582E438
:100A82003410F583E53AF07A107B00AF42120D8202
:0B0A9200AB3DAA3CAD3BAF42020D663D
:100CE000E4901000F0A3EFF07A107B007D027F51BA
:100CF000120D827A107B027D017F51120D669010D9
:030D000002E0FF0F
:010D030022CD
:100DFE007808E548C2B620E004C2B28002D2B20042
:070E0E0000D2B603D8EE226A
:100C890090E682E030E004E020E60B90E682E03076
:100C9900E119E030E71590E680E04401F07F147E29
:0C0CA90000120A9D90E680E054FEF0224C
:1008D90090E682E044C0F090E681F0438701000091
:0408E90000000022E9
:100C5A0030100990E680E0440AF0800790E680E0D0
:100C6A004408F07FDC7E05120A9D90E65D74FFF071
:0F0C7A0090E65FF05391EF90E680E054F7F022A0
:080ECC00E4F51BD2E9D2AF22CC
:100B5600AD0790E678E020E6F9C2E990E678E04451
:100B660080F0ED25E090E679F090E678E030E0F967
:100B760090E678E04440F090E678E020E6F990E6EA
:080B860078E030E1D6D2E9224B
:100BF800AC0790E678E020E6F9E51B702390E678EC
:100C0800E04480F0EC25E090E679F08D16AF03A97A
:100C1800077517018A188919E4F51A751B01D3227B
:020C2800C322E5
:100BC400AC0790E678E020E6F9E51B702590E6781E
:100BD400E04480F0EC25E0440190E679F08D16AF16
:100BE40003A9077517018A188919E4F51A751B03F7
:040BF400D322C32223
:03004B0002074366
:10074300C0E0C083C082C085C084C086758600C0F7
:10075300D075D000C000C001C002C003C006C007EE
:1007630090E678E030E20A751B06E04440F00208A8
:100773003590E678E020E110E51B6402600A751B02
:1007830007E04440F0020835E51B24FE605F146077
:100793003624FE700302082624FC70030208322468
:1007A300086003020835AB17AA18A919AF1A051A6E
:1007B3008F8275830012085390E679F0E51A651667
:1007C3007070751B05806B90E679E0AB17AA18A9CA
:1007D30019AE1A8E82758300120880751B02E51606
:1007E3006401704E90E678E04420F08045E51624DD
:1007F300FEB51A0790E678E04420F0E51614B51A22
:100803000A90E678E04440F0751B0090E679E0AB8F
:1008130017AA18A919AE1A8E8275830012088005CB
:100823001A800F90E678E04440F0751B0080037552
:100833001B005391DFD007D006D003D002D001D0E4
:1008430000D0D0D086D084D085D082D083D0E0327F
:020CB500A9078D
:100CB700AE14AF158F828E83A3E064037017AD0166
:100CC70019ED7001228F828E83E07C002FFDEC3EB0
:080CD700FEAF0580DFE4FEFF23
:010CDF0022F2
:100D6600120BC4E51B24FA600E146006240770F308
:0C0D7600D322E4F51BD322E4F51BD322AA
:100D8200120BF8E51B24FA600E146006240770F3B8
:0C0D9200D322E4F51BD322E4F51BD3228E
:100A9D008E338F3490E600E05418700DE533C31398
:100AAD00F533E53413F534801590E600E05418FF66
:100ABD00BF100BE53425E0F534E53333F533E5347C
:100ACD001534AE33700215334E60051208ED80EE0D
:010ADD0022F6
:1008ED007400F58690FDA57C05A3E582458370F91E
:0108FD0022D8
:03004300020900AF
:030053000209009F
:10090000020DB700020E2B00020E1500020DCF00E3
:10091000020B8E00020ADE00020EE200020EE3006D
:10092000020EE400020EE500020EE600020EE700F1
:10093000020EE800020EE900020EEA00020EEB00D1
:10094000020EEC00020EE300020EED00020EEE00BD
:10095000020EEF00020EF000020EF100020EF20095
:10096000020EF300020EE300020EE300020EE300AB
:10097000020EF400020EF500020EF600020EF70061
:10098000020EF800020EF900020EFA00020EFB0041
:10099000020EFC00020EFD00020EFE00020EFF0021
:1009A000020F0000020F0100020F0200020F0300FD
:0809B000020F0400020F050014
:03000000020E9B52
:0C0E9B00787FE4F6D8FD75814A020597C7
:10085300BB010CE58229F582E5833AF583E022505A
:1008630006E92582F8E622BBFE06E92582F8E222A4
:0D087300E58229F582E5833AF583E49322BE
:10088000F8BB010DE58229F582E5833AF583E8F0AE
:10089000225006E92582C8F622BBFE05E92582C85A
:0208A000F22242
:1008A200EB9FF5F0EA9E42F0E99D42F0E89C45F0AC
:0108B2002223
:1008B300D083D082F8E4937012740193700DA3A3D4
:1008C30093F8740193F5828883E4737402936860E8
:0608D300EFA3A3A380DFE8
:00000001FF
